:100000000C942A000C9496010C9447000C94470021
:100010000C9447000C9447000C9447000C94470044
:100020000C9447000C9447000C9447000C94650115
:100030000C9447000C9447000C9447000C94470024
:100040000C9447000C9447000C9447000C947601E4
:100050000C94470011241FBECFE5D4E0DEBFCDBF16
:1000600010E0A0E6B0E0E2E2F6E002C005900D92FA
:10007000A236B107D9F720E0A2E6B0E001C01D9298
:10008000A437B207E1F70E9498020C940F030C9476
:1000900000008CE085BF80E484BF80EE8ABF80E7EB
:1000A0008BBF7894089582E28BB988E98AB986E893
:1000B00080BD8CE089B908958DE083BF82E089BF5F
:1000C00083E088BF12BE83EF8CBF089514BA8FEF10
:1000D00085BB8ABB87BB92E091BB82BB0E94490073
:1000E0000E945C000E945300089581E08BBB88BB96
:1000F0008093660008951BBA18BA089582E08BBBFE
:1001000088BB8FE493EC0197F1F700C000000E94D8
:100110007B0087EA91E60197F1F700C0000008959F
:100120000E947B0010926600809170009091710097
:1001300066E40E9402038091700090917100019624
:10014000909371008093700080916B0090916C008F
:1001500066E40E94020380916B0090916C0001970D
:1001600090936C0080936B0010927100109270005D
:1001700084EF91E090936C0080936B000895609100
:10018000670080917000909171000E94020380913D
:1001900070009091710001969093710080937000AF
:1001A0006091680080916B0090916C000E94020346
:1001B00080916B0090916C00019790936C008093FC
:1001C0006B000895682F80916B0090916C000E94E5
:1001D000020380916B0090916C00019790936C00EA
:1001E00080936B00089581E08BBB18BA2FED83E9F3
:1001F00094E0215080409040E1F700C00000089555
:100200001BBA81E088BB2FEB87E299E02150804048
:100210009040E1F700C00000089510926500109230
:1002200062000895809367006093680040936400C3
:1002300081E08BBB18BA2FED83E994E02150804018
:100240009040E1F700C000000E940D010E9475007F
:1002500008958093670060936800409364001BBA20
:1002600081E088BB2FEB87E299E0215080409040ED
:10027000E1F700C000000E94BF00109272000E94CF
:100280000D010E9475000895809170009091710099
:1002900060E50E94020380917000909171000196C8
:1002A000909371008093700080916B0090916C002E
:1002B00060E50E94020380916B0090916C000197B1
:1002C00090936C0080936B0008951F920F920FB66D
:1002D0000F9211248F9381E08093630082E28BB9A7
:1002E0008F910F900FBE0F901F9018951F920F9235
:1002F0000FB60F9211248F9380916600882381F0AE
:10030000809165008F5F80936500809165008430E7
:1003100038F010926500809162008F5F80936200D8
:100320008F910F900FBE0F901F9018951F920F92F4
:100330000FB60F9211242F933F934F935F936F93B8
:100340007F938F939F93AF93BF93EF93FF931092FD
:100350006600809172008F5F809372000E940D0191
:100360000E947B002FE38DE093E02150804090407D
:10037000E1F700C000000E947E002FE38DE093E0D3
:10038000215080409040E1F700C00000809164005F
:100390008E34A1F480917200813031F445E464E43C
:1003A00084E40E94120153C080917200823031F4C3
:1003B0004FE469E489E40E94290149C08091640006
:1003C0008335A1F480917200813031F44FE469E407
:1003D00084E40E9412013BC080917200823031F4AB
:1003E00045E464E489E40E94290131C080916400FD
:1003F0008534A1F480917200813031F443E562E4E8
:1004000084E40E94120123C080917200823031F492
:100410004EE461E489E40E94290119C080916400DE
:100420008F3409F094CF80917200813031F44EE422
:1004300061E484E40E9412010AC08091720082305B
:1004400009F085CF43E562E489E40E942901FF9128
:10045000EF91BF91AF919F918F917F916F915F913C
:100460004F913F912F910F900FBE0F901F901895B5
:10047000809166008823F1F0809162008130D1F490
:1004800080917200813039F40E94BF001092720096
:100490000E940D01089580917200823039F40E940B
:1004A000BF00109272000E940D0108950E94440145
:1004B0000E940D01089581E08BBB88BB2FE38DE086
:1004C00093E0215080409040E1F700C000000E947E
:1004D0007B0008958091690090916A000E94FA0261
:1004E0008093730087EA91E60197F1F700C000005E
:1004F00080917300863491F080917300803511F4FF
:100500000E945B0280917300843411F40E94F30016
:1005100080917300893411F40E9400018091690078
:1005200090916A00019690936A0080936900D2CFFF
:100530000E9466000E947B00109271001092700071
:1005400084EF91E090936C0080936B0010926A00AE
:100550001092690090936E0080936D001092650078
:10056000109262008EE48093640081E480936800BE
:1005700010927200109266001092630080916800E1
:100580000E94E200989B0E947500999B0E94900037
:100590009A9B0E946A020E9438028091630088231D
:1005A00089F31092630010926000809160008F3F89
:1005B00049F380916D0090916E000E94FA02809341
:1005C000600083EC99E00197F1F700C000005D9BAB
:1005D000FECF809160008CB980916D0090916E008B
:1005E000019790936E0080936D00809160008F3F23
:1005F00001F7C8CFE199FECF9FBB8EBBE09A992748
:100600008DB30895262FE199FECF9FBB8EBB2DBBE6
:100610000FB6F894E29AE19A0FBE01960895F89405
:02062000FFCF0A
:02062200460090
:00000001FF
